{
  "_format": "hh-sol-artifact-1",
  "contractName": "ZkScore",
  "sourceName": "contracts/ZkScore.sol",
  "abi": [
    {
      "inputs": [],
      "stateMutability": "nonpayable",
      "type": "constructor"
    },
    {
      "anonymous": false,
      "inputs": [
        {
          "indexed": true,
          "internalType": "address",
          "name": "owner",
          "type": "address"
        },
        {
          "indexed": true,
          "internalType": "address",
          "name": "approved",
          "type": "address"
        },
        {
          "indexed": true,
          "internalType": "uint256",
          "name": "tokenId",
          "type": "uint256"
        }
      ],
      "name": "Approval",
      "type": "event"
    },
    {
      "anonymous": false,
      "inputs": [
        {
          "indexed": true,
          "internalType": "address",
          "name": "owner",
          "type": "address"
        },
        {
          "indexed": true,
          "internalType": "address",
          "name": "operator",
          "type": "address"
        },
        {
          "indexed": false,
          "internalType": "bool",
          "name": "approved",
          "type": "bool"
        }
      ],
      "name": "ApprovalForAll",
      "type": "event"
    },
    {
      "anonymous": false,
      "inputs": [
        {
          "indexed": true,
          "internalType": "address",
          "name": "previousOwner",
          "type": "address"
        },
        {
          "indexed": true,
          "internalType": "address",
          "name": "newOwner",
          "type": "address"
        }
      ],
      "name": "OwnershipTransferred",
      "type": "event"
    },
    {
      "anonymous": false,
      "inputs": [
        {
          "indexed": true,
          "internalType": "address",
          "name": "from",
          "type": "address"
        },
        {
          "indexed": true,
          "internalType": "address",
          "name": "to",
          "type": "address"
        },
        {
          "indexed": true,
          "internalType": "uint256",
          "name": "tokenId",
          "type": "uint256"
        }
      ],
      "name": "Transfer",
      "type": "event"
    },
    {
      "inputs": [
        {
          "internalType": "address",
          "name": "to",
          "type": "address"
        },
        {
          "internalType": "uint256",
          "name": "tokenId",
          "type": "uint256"
        }
      ],
      "name": "approve",
      "outputs": [],
      "stateMutability": "nonpayable",
      "type": "function"
    },
    {
      "inputs": [
        {
          "internalType": "address",
          "name": "owner",
          "type": "address"
        }
      ],
      "name": "balanceOf",
      "outputs": [
        {
          "internalType": "uint256",
          "name": "",
          "type": "uint256"
        }
      ],
      "stateMutability": "view",
      "type": "function"
    },
    {
      "inputs": [
        {
          "internalType": "uint256",
          "name": "",
          "type": "uint256"
        }
      ],
      "name": "claimOftokenId",
      "outputs": [
        {
          "internalType": "bytes32",
          "name": "",
          "type": "bytes32"
        }
      ],
      "stateMutability": "view",
      "type": "function"
    },
    {
      "inputs": [],
      "name": "firstResister",
      "outputs": [],
      "stateMutability": "nonpayable",
      "type": "function"
    },
    {
      "inputs": [
        {
          "internalType": "uint256",
          "name": "tokenId",
          "type": "uint256"
        }
      ],
      "name": "getApproved",
      "outputs": [
        {
          "internalType": "address",
          "name": "",
          "type": "address"
        }
      ],
      "stateMutability": "view",
      "type": "function"
    },
    {
      "inputs": [
        {
          "internalType": "address",
          "name": "owner",
          "type": "address"
        },
        {
          "internalType": "address",
          "name": "operator",
          "type": "address"
        }
      ],
      "name": "isApprovedForAll",
      "outputs": [
        {
          "internalType": "bool",
          "name": "",
          "type": "bool"
        }
      ],
      "stateMutability": "view",
      "type": "function"
    },
    {
      "inputs": [
        {
          "internalType": "address",
          "name": "addr",
          "type": "address"
        }
      ],
      "name": "isRegistered",
      "outputs": [
        {
          "internalType": "bool",
          "name": "",
          "type": "bool"
        }
      ],
      "stateMutability": "view",
      "type": "function"
    },
    {
      "inputs": [
        {
          "internalType": "address",
          "name": "to",
          "type": "address"
        },
        {
          "internalType": "bytes32",
          "name": "hashedScore",
          "type": "bytes32"
        }
      ],
      "name": "mint",
      "outputs": [],
      "stateMutability": "nonpayable",
      "type": "function"
    },
    {
      "inputs": [],
      "name": "name",
      "outputs": [
        {
          "internalType": "string",
          "name": "",
          "type": "string"
        }
      ],
      "stateMutability": "view",
      "type": "function"
    },
    {
      "inputs": [],
      "name": "owner",
      "outputs": [
        {
          "internalType": "address",
          "name": "",
          "type": "address"
        }
      ],
      "stateMutability": "view",
      "type": "function"
    },
    {
      "inputs": [
        {
          "internalType": "uint256",
          "name": "tokenId",
          "type": "uint256"
        }
      ],
      "name": "ownerOf",
      "outputs": [
        {
          "internalType": "address",
          "name": "",
          "type": "address"
        }
      ],
      "stateMutability": "view",
      "type": "function"
    },
    {
      "inputs": [],
      "name": "renounceOwnership",
      "outputs": [],
      "stateMutability": "nonpayable",
      "type": "function"
    },
    {
      "inputs": [
        {
          "internalType": "address",
          "name": "from",
          "type": "address"
        },
        {
          "internalType": "address",
          "name": "to",
          "type": "address"
        },
        {
          "internalType": "uint256",
          "name": "tokenId",
          "type": "uint256"
        }
      ],
      "name": "safeTransferFrom",
      "outputs": [],
      "stateMutability": "nonpayable",
      "type": "function"
    },
    {
      "inputs": [
        {
          "internalType": "address",
          "name": "from",
          "type": "address"
        },
        {
          "internalType": "address",
          "name": "to",
          "type": "address"
        },
        {
          "internalType": "uint256",
          "name": "tokenId",
          "type": "uint256"
        },
        {
          "internalType": "bytes",
          "name": "data",
          "type": "bytes"
        }
      ],
      "name": "safeTransferFrom",
      "outputs": [],
      "stateMutability": "nonpayable",
      "type": "function"
    },
    {
      "inputs": [
        {
          "internalType": "address",
          "name": "operator",
          "type": "address"
        },
        {
          "internalType": "bool",
          "name": "approved",
          "type": "bool"
        }
      ],
      "name": "setApprovalForAll",
      "outputs": [],
      "stateMutability": "nonpayable",
      "type": "function"
    },
    {
      "inputs": [
        {
          "internalType": "bytes4",
          "name": "interfaceId",
          "type": "bytes4"
        }
      ],
      "name": "supportsInterface",
      "outputs": [
        {
          "internalType": "bool",
          "name": "",
          "type": "bool"
        }
      ],
      "stateMutability": "view",
      "type": "function"
    },
    {
      "inputs": [],
      "name": "symbol",
      "outputs": [
        {
          "internalType": "string",
          "name": "",
          "type": "string"
        }
      ],
      "stateMutability": "view",
      "type": "function"
    },
    {
      "inputs": [
        {
          "internalType": "uint256",
          "name": "index",
          "type": "uint256"
        }
      ],
      "name": "tokenByIndex",
      "outputs": [
        {
          "internalType": "uint256",
          "name": "",
          "type": "uint256"
        }
      ],
      "stateMutability": "view",
      "type": "function"
    },
    {
      "inputs": [
        {
          "internalType": "address",
          "name": "owner",
          "type": "address"
        },
        {
          "internalType": "uint256",
          "name": "index",
          "type": "uint256"
        }
      ],
      "name": "tokenOfOwnerByIndex",
      "outputs": [
        {
          "internalType": "uint256",
          "name": "",
          "type": "uint256"
        }
      ],
      "stateMutability": "view",
      "type": "function"
    },
    {
      "inputs": [
        {
          "internalType": "uint256",
          "name": "tokenId",
          "type": "uint256"
        }
      ],
      "name": "tokenURI",
      "outputs": [
        {
          "internalType": "string",
          "name": "",
          "type": "string"
        }
      ],
      "stateMutability": "view",
      "type": "function"
    },
    {
      "inputs": [],
      "name": "totalSupply",
      "outputs": [
        {
          "internalType": "uint256",
          "name": "",
          "type": "uint256"
        }
      ],
      "stateMutability": "view",
      "type": "function"
    },
    {
      "inputs": [
        {
          "internalType": "address",
          "name": "from",
          "type": "address"
        },
        {
          "internalType": "address",
          "name": "to",
          "type": "address"
        },
        {
          "internalType": "uint256",
          "name": "tokenId",
          "type": "uint256"
        }
      ],
      "name": "transferFrom",
      "outputs": [],
      "stateMutability": "nonpayable",
      "type": "function"
    },
    {
      "inputs": [
        {
          "internalType": "address",
          "name": "newOwner",
          "type": "address"
        }
      ],
      "name": "transferOwnership",
      "outputs": [],
      "stateMutability": "nonpayable",
      "type": "function"
    },
    {
      "inputs": [
        {
          "internalType": "address",
          "name": "",
          "type": "address"
        }
      ],
      "name": "userAddressHash",
      "outputs": [
        {
          "internalType": "bytes32",
          "name": "",
          "type": "bytes32"
        }
      ],
      "stateMutability": "view",
      "type": "function"
    },
    {
      "inputs": [
        {
          "internalType": "address",
          "name": "",
          "type": "address"
        }
      ],
      "name": "userIdentityState",
      "outputs": [
        {
          "internalType": "bytes32",
          "name": "",
          "type": "bytes32"
        }
      ],
      "stateMutability": "view",
      "type": "function"
    },
    {
      "inputs": [],
      "name": "zeroHash",
      "outputs": [
        {
          "internalType": "bytes32",
          "name": "",
          "type": "bytes32"
        }
      ],
      "stateMutability": "view",
      "type": "function"
    }
  ],
  "bytecode": "0x60806040523480156200001157600080fd5b506040518060400160405280600881526020017f5a6b2053636f72650000000000000000000000000000000000000000000000008152506040518060400160405280600381526020017f5a4b5300000000000000000000000000000000000000000000000000000000008152506200009e62000092620000f760201b60201c565b620000ff60201b60201c565b8160019081620000af91906200043d565b508060029081620000c191906200043d565b505050604051602001620000d5906200057f565b60405160208183030381529060405280519060200120600f8190555062000596565b600033905090565b60008060009054906101000a900473ffffffffffffffffffffffffffffffffffffffff169050816000806101000a81548173ffffffffffffffffffffffffffffffffffffffff021916908373ffffffffffffffffffffffffffffffffffffffff1602179055508173ffffffffffffffffffffffffffffffffffffffff168173ffffffffffffffffffffffffffffffffffffffff167f8be0079c531659141344cd1fd0a4f28419497f9722a3daafe3b4186f6b6457e060405160405180910390a35050565b600081519050919050565b7f4e487b7100000000000000000000000000000000000000000000000000000000600052604160045260246000fd5b7f4e487b7100000000000000000000000000000000000000000000000000000000600052602260045260246000fd5b600060028204905060018216806200024557607f821691505b6020821081036200025b576200025a620001fd565b5b50919050565b60008190508160005260206000209050919050565b60006020601f8301049050919050565b600082821b905092915050565b600060088302620002c57fffffffffffffffffffffffffffffffffffffffffffffffffffffffffffffffff8262000286565b620002d1868362000286565b95508019841693508086168417925050509392505050565b6000819050919050565b6000819050919050565b60006200031e620003186200031284620002e9565b620002f3565b620002e9565b9050919050565b6000819050919050565b6200033a83620002fd565b62000352620003498262000325565b84845462000293565b825550505050565b600090565b620003696200035a565b620003768184846200032f565b505050565b5b818110156200039e57620003926000826200035f565b6001810190506200037c565b5050565b601f821115620003ed57620003b78162000261565b620003c28462000276565b81016020851015620003d2578190505b620003ea620003e18562000276565b8301826200037b565b50505b505050565b600082821c905092915050565b60006200041260001984600802620003f2565b1980831691505092915050565b60006200042d8383620003ff565b9150826002028217905092915050565b6200044882620001c3565b67ffffffffffffffff811115620004645762000463620001ce565b5b6200047082546200022c565b6200047d828285620003a2565b600060209050601f831160018114620004b55760008415620004a0578287015190505b620004ac85826200041f565b8655506200051c565b601f198416620004c58662000261565b60005b82811015620004ef57848901518255600182019150602085019450602081019050620004c8565b868310156200050f57848901516200050b601f891682620003ff565b8355505b6001600288020188555050505b505050505050565b600081905092915050565b7f3000000000000000000000000000000000000000000000000000000000000000600082015250565b60006200056760018362000524565b915062000574826200052f565b600182019050919050565b60006200058c8262000558565b9150819050919050565b613af780620005a66000396000f3fe608060405234801561001057600080fd5b506004361061018e5760003560e01c806370a08231116100de578063b88d4fde11610097578063c87b56dd11610071578063c87b56dd14610495578063e985e9c5146104c5578063f2fde38b146104f5578063ff9f94b4146105115761018e565b8063b88d4fde1461043f578063b8d658001461045b578063c3c5a547146104655761018e565b806370a082311461037d578063715018a6146103ad5780638da5cb5b146103b75780639395eea9146103d557806395d89b4114610405578063a22cb465146104235761018e565b806323b872dd1161014b57806342842e0e1161012557806342842e0e146102e35780634f6ccce7146102ff5780636352211e1461032f578063672c82591461035f5761018e565b806323b872dd1461027b5780632cfd3005146102975780632f745c59146102b35761018e565b806301ffc9a714610193578063058d9b4a146101c357806306fdde03146101f3578063081812fc14610211578063095ea7b31461024157806318160ddd1461025d575b600080fd5b6101ad60048036038101906101a891906126c7565b610541565b6040516101ba919061270f565b60405180910390f35b6101dd60048036038101906101d89190612788565b6105bb565b6040516101ea91906127ce565b60405180910390f35b6101fb6105d3565b6040516102089190612879565b60405180910390f35b61022b600480360381019061022691906128d1565b610665565b604051610238919061290d565b60405180910390f35b61025b60048036038101906102569190612928565b6106ab565b005b6102656106fa565b6040516102729190612977565b60405180910390f35b61029560048036038101906102909190612992565b610707565b005b6102b160048036038101906102ac9190612a11565b610767565b005b6102cd60048036038101906102c89190612928565b6109d8565b6040516102da9190612977565b60405180910390f35b6102fd60048036038101906102f89190612992565b610a7d565b005b610319600480360381019061031491906128d1565b610a9d565b6040516103269190612977565b60405180910390f35b610349600480360381019061034491906128d1565b610b0e565b604051610356919061290d565b60405180910390f35b610367610bbf565b60405161037491906127ce565b60405180910390f35b61039760048036038101906103929190612788565b610bc5565b6040516103a49190612977565b60405180910390f35b6103b5610c7c565b005b6103bf610c90565b6040516103cc919061290d565b60405180910390f35b6103ef60048036038101906103ea91906128d1565b610cb9565b6040516103fc91906127ce565b60405180910390f35b61040d610cd1565b60405161041a9190612879565b60405180910390f35b61043d60048036038101906104389190612a7d565b610d63565b005b61045960048036038101906104549190612bf2565b610db2565b005b610463610e14565b005b61047f600480360381019061047a9190612788565b610fb3565b60405161048c919061270f565b60405180910390f35b6104af60048036038101906104aa91906128d1565b611002565b6040516104bc9190612879565b60405180910390f35b6104df60048036038101906104da9190612c75565b61106a565b6040516104ec919061270f565b60405180910390f35b61050f600480360381019061050a9190612788565b6110fe565b005b61052b60048036038101906105269190612788565b611181565b60405161053891906127ce565b60405180910390f35b60007f780e9d63000000000000000000000000000000000000000000000000000000007bffffffffffffffffffffffffffffffffffffffffffffffffffffffff1916827bffffffffffffffffffffffffffffffffffffffffffffffffffffffff191614806105b457506105b382611199565b5b9050919050565b600c6020528060005260406000206000915090505481565b6060600180546105e290612ce4565b80601f016020809104026020016040519081016040528092919081815260200182805461060e90612ce4565b801561065b5780601f106106305761010080835404028352916020019161065b565b820191906000526020600020905b81548152906001019060200180831161063e57829003601f168201915b5050505050905090565b60006106708261127b565b6005600083815260200190815260200160002060009054906101000a900473ffffffffffffffffffffffffffffffffffffffff169050919050565b60006106ec576040517f08c379a00000000000000000000000000000000000000000000000000000000081526004016106e390612d61565b60405180910390fd5b6106f682826112c6565b5050565b6000600980549050905090565b6107186107126113dd565b826113e5565b610757576040517f08c379a000000000000000000000000000000000000000000000000000000000815260040161074e90612df3565b60405180910390fd5b61076283838361147a565b505050565b816000801b600d60008373ffffffffffffffffffffffffffffffffffffffff1673ffffffffffffffffffffffffffffffffffffffff16815260200190815260200160002054036107ec576040517f08c379a00000000000000000000000000000000000000000000000000000000081526004016107e390612e85565b60405180910390fd5b3373ffffffffffffffffffffffffffffffffffffffff168173ffffffffffffffffffffffffffffffffffffffff160361085a576040517f08c379a000000000000000000000000000000000000000000000000000000000815260040161085190612f17565b60405180910390fd5b33610864816116e0565b156108a4576040517f08c379a000000000000000000000000000000000000000000000000000000000815260040161089b90612f83565b60405180910390fd5b836108ae816116e0565b156108ee576040517f08c379a00000000000000000000000000000000000000000000000000000000081526004016108e590612f83565b60405180910390fd5b600061093985600d60008973ffffffffffffffffffffffffffffffffffffffff1673ffffffffffffffffffffffffffffffffffffffff16815260200190815260200160002054611703565b9050610984600c60008873ffffffffffffffffffffffffffffffffffffffff1673ffffffffffffffffffffffffffffffffffffffff1681526020019081526020016000205482611703565b600c60008873ffffffffffffffffffffffffffffffffffffffff1673ffffffffffffffffffffffffffffffffffffffff168152602001908152602001600020819055506109d08661171a565b505050505050565b60006109e383610bc5565b8210610a24576040517f08c379a0000000000000000000000000000000000000000000000000000000008152600401610a1b90613015565b60405180910390fd5b600760008473ffffffffffffffffffffffffffffffffffffffff1673ffffffffffffffffffffffffffffffffffffffff168152602001908152602001600020600083815260200190815260200160002054905092915050565b610a9883838360405180602001604052806000815250610db2565b505050565b6000610aa76106fa565b8210610ae8576040517f08c379a0000000000000000000000000000000000000000000000000000000008152600401610adf906130a7565b60405180910390fd5b60098281548110610afc57610afb6130c7565b5b90600052602060002001549050919050565b6000806003600084815260200190815260200160002060009054906101000a900473ffffffffffffffffffffffffffffffffffffffff169050600073ffffffffffffffffffffffffffffffffffffffff168173ffffffffffffffffffffffffffffffffffffffff1603610bb6576040517f08c379a0000000000000000000000000000000000000000000000000000000008152600401610bad90613142565b60405180910390fd5b80915050919050565b600f5481565b60008073ffffffffffffffffffffffffffffffffffffffff168273ffffffffffffffffffffffffffffffffffffffff1603610c35576040517f08c379a0000000000000000000000000000000000000000000000000000000008152600401610c2c906131d4565b60405180910390fd5b600460008373ffffffffffffffffffffffffffffffffffffffff1673ffffffffffffffffffffffffffffffffffffffff168152602001908152602001600020549050919050565b610c84611797565b610c8e6000611815565b565b60008060009054906101000a900473ffffffffffffffffffffffffffffffffffffffff16905090565b600e6020528060005260406000206000915090505481565b606060028054610ce090612ce4565b80601f0160208091040260200160405190810160405280929190818152602001828054610d0c90612ce4565b8015610d595780601f10610d2e57610100808354040283529160200191610d59565b820191906000526020600020905b815481529060010190602001808311610d3c57829003601f168201915b5050505050905090565b6000610da4576040517f08c379a0000000000000000000000000000000000000000000000000000000008152600401610d9b90612d61565b60405180910390fd5b610dae82826118d9565b5050565b610dc3610dbd6113dd565b836113e5565b610e02576040517f08c379a0000000000000000000000000000000000000000000000000000000008152600401610df990612df3565b60405180910390fd5b610e0e848484846118ef565b50505050565b6000801b600d60003373ffffffffffffffffffffffffffffffffffffffff1673ffffffffffffffffffffffffffffffffffffffff1681526020019081526020016000205414610e98576040517f08c379a0000000000000000000000000000000000000000000000000000000008152600401610e8f90613240565b60405180910390fd5b33610ea2816116e0565b15610ee2576040517f08c379a0000000000000000000000000000000000000000000000000000000008152600401610ed990612f83565b60405180910390fd5b6000339050600081604051602001610efa91906132a8565b60405160208183030381529060405280519060200120905080600d60008473ffffffffffffffffffffffffffffffffffffffff1673ffffffffffffffffffffffffffffffffffffffff16815260200190815260200160002081905550610f62600f5482611703565b600c60008473ffffffffffffffffffffffffffffffffffffffff1673ffffffffffffffffffffffffffffffffffffffff16815260200190815260200160002081905550610fae8261171a565b505050565b60008060001b600d60008473ffffffffffffffffffffffffffffffffffffffff1673ffffffffffffffffffffffffffffffffffffffff1681526020019081526020016000205414159050919050565b606061100d8261127b565b600061101761194b565b905060008151116110375760405180602001604052806000815250611062565b8061104184611962565b6040516020016110529291906132ff565b6040516020818303038152906040525b915050919050565b6000600660008473ffffffffffffffffffffffffffffffffffffffff1673ffffffffffffffffffffffffffffffffffffffff16815260200190815260200160002060008373ffffffffffffffffffffffffffffffffffffffff1673ffffffffffffffffffffffffffffffffffffffff16815260200190815260200160002060009054906101000a900460ff16905092915050565b611106611797565b600073ffffffffffffffffffffffffffffffffffffffff168173ffffffffffffffffffffffffffffffffffffffff1603611175576040517f08c379a000000000000000000000000000000000000000000000000000000000815260040161116c90613395565b60405180910390fd5b61117e81611815565b50565b600d6020528060005260406000206000915090505481565b60007f80ac58cd000000000000000000000000000000000000000000000000000000007bffffffffffffffffffffffffffffffffffffffffffffffffffffffff1916827bffffffffffffffffffffffffffffffffffffffffffffffffffffffff1916148061126457507f5b5e139f000000000000000000000000000000000000000000000000000000007bffffffffffffffffffffffffffffffffffffffffffffffffffffffff1916827bffffffffffffffffffffffffffffffffffffffffffffffffffffffff1916145b80611274575061127382611ac2565b5b9050919050565b61128481611b2c565b6112c3576040517f08c379a00000000000000000000000000000000000000000000000000000000081526004016112ba90613142565b60405180910390fd5b50565b60006112d182610b0e565b90508073ffffffffffffffffffffffffffffffffffffffff168373ffffffffffffffffffffffffffffffffffffffff1603611341576040517f08c379a000000000000000000000000000000000000000000000000000000000815260040161133890613427565b60405180910390fd5b8073ffffffffffffffffffffffffffffffffffffffff166113606113dd565b73ffffffffffffffffffffffffffffffffffffffff16148061138f575061138e816113896113dd565b61106a565b5b6113ce576040517f08c379a00000000000000000000000000000000000000000000000000000000081526004016113c5906134b9565b60405180910390fd5b6113d88383611b98565b505050565b600033905090565b6000806113f183610b0e565b90508073ffffffffffffffffffffffffffffffffffffffff168473ffffffffffffffffffffffffffffffffffffffff1614806114335750611432818561106a565b5b8061147157508373ffffffffffffffffffffffffffffffffffffffff1661145984610665565b73ffffffffffffffffffffffffffffffffffffffff16145b91505092915050565b8273ffffffffffffffffffffffffffffffffffffffff1661149a82610b0e565b73ffffffffffffffffffffffffffffffffffffffff16146114f0576040517f08c379a00000000000000000000000000000000000000000000000000000000081526004016114e79061354b565b60405180910390fd5b600073ffffffffffffffffffffffffffffffffffffffff168273ffffffffffffffffffffffffffffffffffffffff160361155f576040517f08c379a0000000000000000000000000000000000000000000000000000000008152600401611556906135dd565b60405180910390fd5b61156a838383611c51565b611575600082611b98565b6001600460008573ffffffffffffffffffffffffffffffffffffffff1673ffffffffffffffffffffffffffffffffffffffff16815260200190815260200160002060008282546115c5919061362c565b925050819055506001600460008473ffffffffffffffffffffffffffffffffffffffff1673ffffffffffffffffffffffffffffffffffffffff168152602001908152602001600020600082825461161c9190613660565b92505081905550816003600083815260200190815260200160002060006101000a81548173ffffffffffffffffffffffffffffffffffffffff021916908373ffffffffffffffffffffffffffffffffffffffff160217905550808273ffffffffffffffffffffffffffffffffffffffff168473ffffffffffffffffffffffffffffffffffffffff167fddf252ad1be2c89b69c2b068fc378daa952ba7f163c4a11628f55a4df523b3ef60405160405180910390a46116db838383611cd0565b505050565b6000808273ffffffffffffffffffffffffffffffffffffffff163b119050919050565b600082600052816020526040600020905092915050565b6000611726600b611cd5565b9050611732600b611ce3565b61173c8282611cf9565b600c60008373ffffffffffffffffffffffffffffffffffffffff1673ffffffffffffffffffffffffffffffffffffffff16815260200190815260200160002054600e6000838152602001908152602001600020819055505050565b61179f6113dd565b73ffffffffffffffffffffffffffffffffffffffff166117bd610c90565b73ffffffffffffffffffffffffffffffffffffffff1614611813576040517f08c379a000000000000000000000000000000000000000000000000000000000815260040161180a906136e0565b60405180910390fd5b565b60008060009054906101000a900473ffffffffffffffffffffffffffffffffffffffff169050816000806101000a81548173ffffffffffffffffffffffffffffffffffffffff021916908373ffffffffffffffffffffffffffffffffffffffff1602179055508173ffffffffffffffffffffffffffffffffffffffff168173ffffffffffffffffffffffffffffffffffffffff167f8be0079c531659141344cd1fd0a4f28419497f9722a3daafe3b4186f6b6457e060405160405180910390a35050565b6118eb6118e46113dd565b8383611d17565b5050565b6118fa84848461147a565b61190684848484611e83565b611945576040517f08c379a000000000000000000000000000000000000000000000000000000000815260040161193c90613772565b60405180910390fd5b50505050565b606060405180602001604052806000815250905090565b6060600082036119a9576040518060400160405280600181526020017f30000000000000000000000000000000000000000000000000000000000000008152509050611abd565b600082905060005b600082146119db5780806119c490613792565b915050600a826119d49190613809565b91506119b1565b60008167ffffffffffffffff8111156119f7576119f6612ac7565b5b6040519080825280601f01601f191660200182016040528015611a295781602001600182028036833780820191505090505b5090505b60008514611ab657600182611a42919061362c565b9150600a85611a51919061383a565b6030611a5d9190613660565b60f81b818381518110611a7357611a726130c7565b5b60200101907effffffffffffffffffffffffffffffffffffffffffffffffffffffffffffff1916908160001a905350600a85611aaf9190613809565b9450611a2d565b8093505050505b919050565b60007f01ffc9a7000000000000000000000000000000000000000000000000000000007bffffffffffffffffffffffffffffffffffffffffffffffffffffffff1916827bffffffffffffffffffffffffffffffffffffffffffffffffffffffff1916149050919050565b60008073ffffffffffffffffffffffffffffffffffffffff166003600084815260200190815260200160002060009054906101000a900473ffffffffffffffffffffffffffffffffffffffff1673ffffffffffffffffffffffffffffffffffffffff1614159050919050565b816005600083815260200190815260200160002060006101000a81548173ffffffffffffffffffffffffffffffffffffffff021916908373ffffffffffffffffffffffffffffffffffffffff160217905550808273ffffffffffffffffffffffffffffffffffffffff16611c0b83610b0e565b73ffffffffffffffffffffffffffffffffffffffff167f8c5be1e5ebec7d5bd14f71427d1e84f3dd0314c0f7b2291e5b200ac8c7c3b92560405160405180910390a45050565b600073ffffffffffffffffffffffffffffffffffffffff168373ffffffffffffffffffffffffffffffffffffffff1614611cc0576040517f08c379a0000000000000000000000000000000000000000000000000000000008152600401611cb790612d61565b60405180910390fd5b611ccb83838361200a565b505050565b505050565b600081600001549050919050565b6001816000016000828254019250508190555050565b611d1382826040518060200160405280600081525061211c565b5050565b8173ffffffffffffffffffffffffffffffffffffffff168373ffffffffffffffffffffffffffffffffffffffff1603611d85576040517f08c379a0000000000000000000000000000000000000000000000000000000008152600401611d7c906138b7565b60405180910390fd5b80600660008573ffffffffffffffffffffffffffffffffffffffff1673ffffffffffffffffffffffffffffffffffffffff16815260200190815260200160002060008473ffffffffffffffffffffffffffffffffffffffff1673ffffffffffffffffffffffffffffffffffffffff16815260200190815260200160002060006101000a81548160ff0219169083151502179055508173ffffffffffffffffffffffffffffffffffffffff168373ffffffffffffffffffffffffffffffffffffffff167f17307eab39ab6107e8899845ad3d59bd9653f200f220920489ca2b5937696c3183604051611e76919061270f565b60405180910390a3505050565b6000611ea48473ffffffffffffffffffffffffffffffffffffffff166116e0565b15611ffd578373ffffffffffffffffffffffffffffffffffffffff1663150b7a02611ecd6113dd565b8786866040518563ffffffff1660e01b8152600401611eef949392919061392c565b6020604051808303816000875af1925050508015611f2b57506040513d601f19601f82011682018060405250810190611f28919061398d565b60015b611fad573d8060008114611f5b576040519150601f19603f3d011682016040523d82523d6000602084013e611f60565b606091505b506000815103611fa5576040517f08c379a0000000000000000000000000000000000000000000000000000000008152600401611f9c90613772565b60405180910390fd5b805181602001fd5b63150b7a0260e01b7bffffffffffffffffffffffffffffffffffffffffffffffffffffffff1916817bffffffffffffffffffffffffffffffffffffffffffffffffffffffff191614915050612002565b600190505b949350505050565b612015838383612177565b600073ffffffffffffffffffffffffffffffffffffffff168373ffffffffffffffffffffffffffffffffffffffff1603612057576120528161217c565b612096565b8173ffffffffffffffffffffffffffffffffffffffff168373ffffffffffffffffffffffffffffffffffffffff16146120955761209483826121c5565b5b5b600073ffffffffffffffffffffffffffffffffffffffff168273ffffffffffffffffffffffffffffffffffffffff16036120d8576120d381612332565b612117565b8273ffffffffffffffffffffffffffffffffffffffff168273ffffffffffffffffffffffffffffffffffffffff1614612116576121158282612403565b5b5b505050565b6121268383612482565b6121336000848484611e83565b612172576040517f08c379a000000000000000000000000000000000000000000000000000000000815260040161216990613772565b60405180910390fd5b505050565b505050565b600980549050600a600083815260200190815260200160002081905550600981908060018154018082558091505060019003906000526020600020016000909190919091505550565b600060016121d284610bc5565b6121dc919061362c565b90506000600860008481526020019081526020016000205490508181146122c1576000600760008673ffffffffffffffffffffffffffffffffffffffff1673ffffffffffffffffffffffffffffffffffffffff168152602001908152602001600020600084815260200190815260200160002054905080600760008773ffffffffffffffffffffffffffffffffffffffff1673ffffffffffffffffffffffffffffffffffffffff168152602001908152602001600020600084815260200190815260200160002081905550816008600083815260200190815260200160002081905550505b6008600084815260200190815260200160002060009055600760008573ffffffffffffffffffffffffffffffffffffffff1673ffffffffffffffffffffffffffffffffffffffff16815260200190815260200160002060008381526020019081526020016000206000905550505050565b60006001600980549050612346919061362c565b90506000600a6000848152602001908152602001600020549050600060098381548110612376576123756130c7565b5b906000526020600020015490508060098381548110612398576123976130c7565b5b906000526020600020018190555081600a600083815260200190815260200160002081905550600a60008581526020019081526020016000206000905560098054806123e7576123e66139ba565b5b6001900381819060005260206000200160009055905550505050565b600061240e83610bc5565b905081600760008573ffffffffffffffffffffffffffffffffffffffff1673ffffffffffffffffffffffffffffffffffffffff168152602001908152602001600020600083815260200190815260200160002081905550806008600084815260200190815260200160002081905550505050565b600073ffffffffffffffffffffffffffffffffffffffff168273ffffffffffffffffffffffffffffffffffffffff16036124f1576040517f08c379a00000000000000000000000000000000000000000000000000000000081526004016124e890613a35565b60405180910390fd5b6124fa81611b2c565b1561253a576040517f08c379a000000000000000000000000000000000000000000000000000000000815260040161253190613aa1565b60405180910390fd5b61254660008383611c51565b6001600460008473ffffffffffffffffffffffffffffffffffffffff1673ffffffffffffffffffffffffffffffffffffffff16815260200190815260200160002060008282546125969190613660565b92505081905550816003600083815260200190815260200160002060006101000a81548173ffffffffffffffffffffffffffffffffffffffff021916908373ffffffffffffffffffffffffffffffffffffffff160217905550808273ffffffffffffffffffffffffffffffffffffffff16600073ffffffffffffffffffffffffffffffffffffffff167fddf252ad1be2c89b69c2b068fc378daa952ba7f163c4a11628f55a4df523b3ef60405160405180910390a461265760008383611cd0565b5050565b6000604051905090565b600080fd5b600080fd5b60007fffffffff0000000000000000000000000000000000000000000000000000000082169050919050565b6126a48161266f565b81146126af57600080fd5b50565b6000813590506126c18161269b565b92915050565b6000602082840312156126dd576126dc612665565b5b60006126eb848285016126b2565b91505092915050565b60008115159050919050565b612709816126f4565b82525050565b60006020820190506127246000830184612700565b92915050565b600073ffffffffffffffffffffffffffffffffffffffff82169050919050565b60006127558261272a565b9050919050565b6127658161274a565b811461277057600080fd5b50565b6000813590506127828161275c565b92915050565b60006020828403121561279e5761279d612665565b5b60006127ac84828501612773565b91505092915050565b6000819050919050565b6127c8816127b5565b82525050565b60006020820190506127e360008301846127bf565b92915050565b600081519050919050565b600082825260208201905092915050565b60005b83811015612823578082015181840152602081019050612808565b60008484015250505050565b6000601f19601f8301169050919050565b600061284b826127e9565b61285581856127f4565b9350612865818560208601612805565b61286e8161282f565b840191505092915050565b600060208201905081810360008301526128938184612840565b905092915050565b6000819050919050565b6128ae8161289b565b81146128b957600080fd5b50565b6000813590506128cb816128a5565b92915050565b6000602082840312156128e7576128e6612665565b5b60006128f5848285016128bc565b91505092915050565b6129078161274a565b82525050565b600060208201905061292260008301846128fe565b92915050565b6000806040838503121561293f5761293e612665565b5b600061294d85828601612773565b925050602061295e858286016128bc565b9150509250929050565b6129718161289b565b82525050565b600060208201905061298c6000830184612968565b92915050565b6000806000606084860312156129ab576129aa612665565b5b60006129b986828701612773565b93505060206129ca86828701612773565b92505060406129db868287016128bc565b9150509250925092565b6129ee816127b5565b81146129f957600080fd5b50565b600081359050612a0b816129e5565b92915050565b60008060408385031215612a2857612a27612665565b5b6000612a3685828601612773565b9250506020612a47858286016129fc565b9150509250929050565b612a5a816126f4565b8114612a6557600080fd5b50565b600081359050612a7781612a51565b92915050565b60008060408385031215612a9457612a93612665565b5b6000612aa285828601612773565b9250506020612ab385828601612a68565b9150509250929050565b600080fd5b600080fd5b7f4e487b7100000000000000000000000000000000000000000000000000000000600052604160045260246000fd5b612aff8261282f565b810181811067ffffffffffffffff82111715612b1e57612b1d612ac7565b5b80604052505050565b6000612b3161265b565b9050612b3d8282612af6565b919050565b600067ffffffffffffffff821115612b5d57612b5c612ac7565b5b612b668261282f565b9050602081019050919050565b82818337600083830152505050565b6000612b95612b9084612b42565b612b27565b905082815260208101848484011115612bb157612bb0612ac2565b5b612bbc848285612b73565b509392505050565b600082601f830112612bd957612bd8612abd565b5b8135612be9848260208601612b82565b91505092915050565b60008060008060808587031215612c0c57612c0b612665565b5b6000612c1a87828801612773565b9450506020612c2b87828801612773565b9350506040612c3c878288016128bc565b925050606085013567ffffffffffffffff811115612c5d57612c5c61266a565b5b612c6987828801612bc4565b91505092959194509250565b60008060408385031215612c8c57612c8b612665565b5b6000612c9a85828601612773565b9250506020612cab85828601612773565b9150509250929050565b7f4e487b7100000000000000000000000000000000000000000000000000000000600052602260045260246000fd5b60006002820490506001821680612cfc57607f821691505b602082108103612d0f57612d0e612cb5565b5b50919050565b7f4572723a20746f6b656e20697320534f554c20424f554e440000000000000000600082015250565b6000612d4b6018836127f4565b9150612d5682612d15565b602082019050919050565b60006020820190508181036000830152612d7a81612d3e565b9050919050565b7f4552433732313a2063616c6c6572206973206e6f7420746f6b656e206f776e6560008201527f72206e6f7220617070726f766564000000000000000000000000000000000000602082015250565b6000612ddd602e836127f4565b9150612de882612d81565b604082019050919050565b60006020820190508181036000830152612e0c81612dd0565b9050919050565b7f526563697069656e747320686173206e6f74207265676973746572656420796560008201527f7400000000000000000000000000000000000000000000000000000000000000602082015250565b6000612e6f6021836127f4565b9150612e7a82612e13565b604082019050919050565b60006020820190508181036000830152612e9e81612e62565b9050919050565b7f596f752063616e6e6f74206164642072657075746174696f6e20746f20796f7560008201527f7273656c66000000000000000000000000000000000000000000000000000000602082015250565b6000612f016025836127f4565b9150612f0c82612ea5565b604082019050919050565b60006020820190508181036000830152612f3081612ef4565b9050919050565b7f41646472657373206d75737420626520454f4100000000000000000000000000600082015250565b6000612f6d6013836127f4565b9150612f7882612f37565b602082019050919050565b60006020820190508181036000830152612f9c81612f60565b9050919050565b7f455243373231456e756d657261626c653a206f776e657220696e646578206f7560008201527f74206f6620626f756e6473000000000000000000000000000000000000000000602082015250565b6000612fff602b836127f4565b915061300a82612fa3565b604082019050919050565b6000602082019050818103600083015261302e81612ff2565b9050919050565b7f455243373231456e756d657261626c653a20676c6f62616c20696e646578206f60008201527f7574206f6620626f756e64730000000000000000000000000000000000000000602082015250565b6000613091602c836127f4565b915061309c82613035565b604082019050919050565b600060208201905081810360008301526130c081613084565b9050919050565b7f4e487b7100000000000000000000000000000000000000000000000000000000600052603260045260246000fd5b7f4552433732313a20696e76616c696420746f6b656e2049440000000000000000600082015250565b600061312c6018836127f4565b9150613137826130f6565b602082019050919050565b6000602082019050818103600083015261315b8161311f565b9050919050565b7f4552433732313a2061646472657373207a65726f206973206e6f74206120766160008201527f6c6964206f776e65720000000000000000000000000000000000000000000000602082015250565b60006131be6029836127f4565b91506131c982613162565b604082019050919050565b600060208201905081810360008301526131ed816131b1565b9050919050565b7f596f7520616c7265616479207265676973746572656400000000000000000000600082015250565b600061322a6016836127f4565b9150613235826131f4565b602082019050919050565b600060208201905081810360008301526132598161321d565b9050919050565b60008160601b9050919050565b600061327882613260565b9050919050565b600061328a8261326d565b9050919050565b6132a261329d8261274a565b61327f565b82525050565b60006132b48284613291565b60148201915081905092915050565b600081905092915050565b60006132d9826127e9565b6132e381856132c3565b93506132f3818560208601612805565b80840191505092915050565b600061330b82856132ce565b915061331782846132ce565b91508190509392505050565b7f4f776e61626c653a206e6577206f776e657220697320746865207a65726f206160008201527f6464726573730000000000000000000000000000000000000000000000000000602082015250565b600061337f6026836127f4565b915061338a82613323565b604082019050919050565b600060208201905081810360008301526133ae81613372565b9050919050565b7f4552433732313a20617070726f76616c20746f2063757272656e74206f776e6560008201527f7200000000000000000000000000000000000000000000000000000000000000602082015250565b60006134116021836127f4565b915061341c826133b5565b604082019050919050565b6000602082019050818103600083015261344081613404565b9050919050565b7f4552433732313a20617070726f76652063616c6c6572206973206e6f7420746f60008201527f6b656e206f776e6572206e6f7220617070726f76656420666f7220616c6c0000602082015250565b60006134a3603e836127f4565b91506134ae82613447565b604082019050919050565b600060208201905081810360008301526134d281613496565b9050919050565b7f4552433732313a207472616e736665722066726f6d20696e636f72726563742060008201527f6f776e6572000000000000000000000000000000000000000000000000000000602082015250565b60006135356025836127f4565b9150613540826134d9565b604082019050919050565b6000602082019050818103600083015261356481613528565b9050919050565b7f4552433732313a207472616e7366657220746f20746865207a65726f2061646460008201527f7265737300000000000000000000000000000000000000000000000000000000602082015250565b60006135c76024836127f4565b91506135d28261356b565b604082019050919050565b600060208201905081810360008301526135f6816135ba565b9050919050565b7f4e487b7100000000000000000000000000000000000000000000000000000000600052601160045260246000fd5b60006136378261289b565b91506136428361289b565b925082820390508181111561365a576136596135fd565b5b92915050565b600061366b8261289b565b91506136768361289b565b925082820190508082111561368e5761368d6135fd565b5b92915050565b7f4f776e61626c653a2063616c6c6572206973206e6f7420746865206f776e6572600082015250565b60006136ca6020836127f4565b91506136d582613694565b602082019050919050565b600060208201905081810360008301526136f9816136bd565b9050919050565b7f4552433732313a207472616e7366657220746f206e6f6e20455243373231526560008201527f63656976657220696d706c656d656e7465720000000000000000000000000000602082015250565b600061375c6032836127f4565b915061376782613700565b604082019050919050565b6000602082019050818103600083015261378b8161374f565b9050919050565b600061379d8261289b565b91507fffffffffffffffffffffffffffffffffffffffffffffffffffffffffffffffff82036137cf576137ce6135fd565b5b600182019050919050565b7f4e487b7100000000000000000000000000000000000000000000000000000000600052601260045260246000fd5b60006138148261289b565b915061381f8361289b565b92508261382f5761382e6137da565b5b828204905092915050565b60006138458261289b565b91506138508361289b565b9250826138605761385f6137da565b5b828206905092915050565b7f4552433732313a20617070726f766520746f2063616c6c657200000000000000600082015250565b60006138a16019836127f4565b91506138ac8261386b565b602082019050919050565b600060208201905081810360008301526138d081613894565b9050919050565b600081519050919050565b600082825260208201905092915050565b60006138fe826138d7565b61390881856138e2565b9350613918818560208601612805565b6139218161282f565b840191505092915050565b600060808201905061394160008301876128fe565b61394e60208301866128fe565b61395b6040830185612968565b818103606083015261396d81846138f3565b905095945050505050565b6000815190506139878161269b565b92915050565b6000602082840312156139a3576139a2612665565b5b60006139b184828501613978565b91505092915050565b7f4e487b7100000000000000000000000000000000000000000000000000000000600052603160045260246000fd5b7f4552433732313a206d696e7420746f20746865207a65726f2061646472657373600082015250565b6000613a1f6020836127f4565b9150613a2a826139e9565b602082019050919050565b60006020820190508181036000830152613a4e81613a12565b9050919050565b7f4552433732313a20746f6b656e20616c7265616479206d696e74656400000000600082015250565b6000613a8b601c836127f4565b9150613a9682613a55565b602082019050919050565b60006020820190508181036000830152613aba81613a7e565b905091905056fea264697066735822122007490ce3b7a878327ed0615609e9a28ac7cdcfe07c0e1d44d04be2f2e748372a64736f6c63430008110033",
  "linkReferences": {},
  "deployedLinkReferences": {}
}